:020000007C2A58
:1000060083120313A801A9018101D230831681004E
:100016008B018B160B110B1D15288312A80A0319C9
:10002600A90A0B11831200302906031D1C285D3016
:0C0036002806031D1F2820280E280800A3
:10004200710DF80DF90D7408F8027508031C750F8F
:10005200F902F00DF10D0F30FC00710DF80DF90DE4
:100062007408701C3A28F8027508031C750FF9020F
:100072003F28F80775080318750FF907F00DF10D01
:10008200FC0B2E2870184B287408F8077508031803
:08009200750FF90700000800DA
:10009A0083120313A801A9018101D23083168100BA
:1000AA008B018B160B1D5E288312A80A0319A90A55
:1000BA000B11831200302906031D65281730280604
:0A00CA00031D682869285728080064
:1000D40083120313A801A9018101D2308316810080
:1000E4008B018B160B1D7B288312A80A0319A90AFE
:1000F4000B11831200302906031D822806302806BE
:0A010400031D8528862874280800D2
:0E010E008312031327088A00260882000800C7
:10011C00831203137408003A031D9D287508003AD6
:10012C00031D9D28FF30F0007F30F100F62883126C
:10013C000313FD01F901F80171087004031900346F
:10014C0071087506FA00FA1BFD09FB01F51FB328AF
:10015C00F409F509F40A0319F50AF11FBA28F00994
:10016C00F109F00A0319F10A71087504FA00FA1B77
:10017C00CF2821207B18E228FD1F0034F009F1095B
:10018C00F00A0319F10AF809F909F80A0319F90A2E
:10019C000034F51FDE28F11BDA287108F90070080D
:1001AC00F800F101F001C228F101F001F00A00346D
:1001BC00F109F009FB0ABF28F80A0319F90A7408B7
:1001CC007802031DC22875087902031DC228F901A3
:1001DC00F801F00A0319F10AF11FC2280000FF34DC
:0201EC00080009
:1001EE0083120313A801A9018101D2308316810065
:1001FE008B018B160B1D08298312A80A0319A90A55
:10020E000B11831200302906031D0F290F3028060B
:0A021E00031D12291329012908000D
:1002280067290130831203138806081C1B29E92952
:1002380002308806881C2029E92904308806081D10
:100248002529E92908308806881D2A29E929103036
:100258008806081E2F29E92920308806881E342997
:10026800E92940308806081F3929E929803088069D
:10027800881F3E29E92901308706071C4329E929F7
:1002880002308706871C4829E92904308706071D9C
:100298004D29E92908308706871D5229E929103098
:1002A8008706071E5729E92920308706871E5C29FB
:1002B800E92940308706071F6129E9298030870628
:1002C800871F6629E9298312031300302F06031DAF
:1002D8006F2900302E060319152900302F06031D3B
:1002E800772901302E0603191C2900302F06031D1B
:1002F8007F2902302E060319212900302F06031DFD
:10030800872903302E060319262900302F06031DDE
:100318008F2904302E0603192B2900302F06031DC0
:10032800972905302E060319302900302F06031DA2
:100338009F2906302E060319352900302F06031D84
:10034800A72907302E0603193A2900302F06031D66
:10035800AF2908302E0603193F2900302F06031D48
:10036800B72909302E060319442900302F06031D2A
:10037800BF290A302E060319492900302F06031D0C
:10038800C7290B302E0603194E2900302F06031DEE
:10039800CF290C302E060319532900302F06031DD0
:1003A800D7290D302E060319582900302F06031DB2
:1003B800DF290E302E0603195D2900302F06031D94
:0E03C800E7290F302E060319622903200800D2
:1003D60083120313AC01AD01AA01AB0180302B06D9
:1003E600F00080307002031DFA290A302A02031831
:1003F6000D2A6A200130A2000030A3000618092A3F
:10040600A201A3016430AA000030AB00AA0A0319B6
:10041600AB0AF12900302306031D132A01302206F8
:10042600031D6F2A06185B2A4D20AA01AB018030F6
:100436002B06F00080307002031D232A08302A02A2
:1004460003185A2A0230F4000030F5002A08F0009A
:100456002B08F1008E207808F0007908F10070086A
:10046600A4007108A500061C492A00302506031DB4
:100476003E2A00302406031D472A0130AC06003010
:10048600AD06AC0DAD0D2C108614552A0030250690
:10049600031D4F2A00302406031D542AAC0DAD0D52
:1004A6002C108610F720AA0A0319AB0A1A2A5C2A0E
:1004B600152A2C08F0002D08F100F10CF00CF113B0
:1004C600711BF1177008AC007108AD00861070083A
:0A04D600AE007108AF001421080009
:1004E00087208A110A128000840AA60A0319A70A23
:0804F000F003031D702A08004F
:1004F80083120313A001A10183168801013086002D
:10050800870183128701860188018601061C8F2ACC
:0A051800A001A101EB21892A902A1D
:02400E004A2F37
:00000001FF
