:02000000CB2B08
:1000060083120313A801A9018101D230831681004E
:100016008B018B160B1D14288312A80A0319A90A33
:100026000B11831200302906031D1B280F302806EA
:0A003600031D1E281F280D280800D6
:10004000013083120313AA000030AB003808F2001D
:100050002A08F0002B08F100720803193428F00D6B
:10006000F10D7010FF3E2D287008AA007108AB003A
:0A0070003608F0053708F105080016
:10007A0083120313B601B70180303706F0008030CF
:10008A007002031D4A281430360203185428061534
:10009A00032006110320B60A0319B70A41280800EB
:1000AA0083120313A801A9018101D23083168100AA
:1000BA008B018B160B110B1D67288312A80A0319D3
:1000CA00A90A0B11831200302906031D6E285D3020
:0C00DA002806031D712872286028080009
:1000E60055203D2006155520061103200730B40083
:1000F6000030B50080303506F00080307002031DF8
:10010600862800303402031CA2283208B6003308C1
:10011600B7003408B8003508B90020200030710651
:10012600031D97280030700603199B2806159C2886
:10013600061103200130B402031CB5037D28061105
:020146000800AF
:1001480083120313B401B501F301F401803074067E
:10015800F00080307002031DB328043073020318C6
:10016800E02808303205F1003308F2000030F205CB
:1001780000307206031DC22808307106031DCF28FF
:100188000230B4060030B506B40DB50D3410B40D08
:10019800B50D3410D9280130B4060030B506B40DB9
:1001A800B50D3410B40DB50D3410B20DB30D3210B9
:1001B800F30A0319F40AAA283408F0003508F100F4
:1001C800F10CF00CF113711BF117F10CF00CF11399
:0601D800711BF117080085
:1001DE00710DF80DF90D7408F8027508031C750FF2
:1001EE00F902F00DF10D0F30FC00710DF80DF90D47
:1001FE007408701C0829F8027508031C750FF902A3
:10020E000D29F80775080318750FF907F00DF10D94
:10021E00FC0BFC28701819297408F80775080318C8
:08022E00750FF907000008003C
:10023600831203137408003A031D2A297508003A2D
:10024600031D2A29FF30F0007F30F1008329831235
:100256000313FD01F901F801710870040319003454
:1002660071087506FA00FA1BFD09FB01F51F402906
:10027600F409F509F40A0319F50AF11F4729F009EB
:10028600F109F00A0319F10A71087504FA00FA1B5C
:100296005C29EF207B186F29FD1F0034F009F10956
:1002A600F00A0319F10AF809F909F80A0319F90A13
:1002B6000034F51F6B29F11B67297108F9007008D6
:1002C600F800F101F0014F29F101F001F00A0034C4
:1002D600F109F009FB0A4C29F80A0319F90A74080E
:1002E6007802031D4F2975087902031D4F29F9016C
:1002F600F801F00A0319F10AF11F4F290000FF3433
:020306000800ED
:1003080083120313A801A9018101D2308316810049
:100318008B018B160B1D95298312A80A0319A90AAC
:100328000B11831200302906031D9C29173028065B
:0A033800031D9F29A0298E2908004B
:0E0342008312031327088A0026088200080091
:10035000992A0130831203138806081CB729B201B9
:10036000B301A4207008B2007108B30073201B2BE6
:1003700002308806881CC6290130B2000030B30064
:10038000A4207008B2007108B30073201B2B043046
:100390008806081DD5290230B2000030B300A42021
:1003A0007008B2007108B30073201B2B0830880658
:1003B000881DE4290330B2000030B300A420700887
:1003C000B2007108B30073201B2B10308806081E82
:1003D000F3290430B2000030B300A4207008B2004A
:1003E0007108B30073201B2B20308806881E022A58
:1003F0000530B2000030B300A4207008B2007108CC
:10040000B30073201B2B40308806081F112A0630CA
:10041000B2000030B300A4207008B2007108B3002D
:1004200073201B2B80308806881F202A0730B200DB
:100430000030B300A4207008B2007108B30073202C
:100440001B2B01308706071C2F2A0830B200003012
:10045000B300A4207008B2007108B30073201B2BF6
:1004600002308706871C3E2A0930B2000030B300F4
:10047000A4207008B2007108B30073201B2B043055
:100480008706071D4D2A0A30B2000030B300A420B1
:100490007008B2007108B30073201B2B0830870668
:1004A000871D5C2A0B30B2000030B300A420700816
:1004B000B2007108B30073201B2B10308706071E93
:1004C0006B2A0C30B2000030B300A4207008B200D8
:1004D0007108B30073201B2B20308706871E7A2AF1
:1004E0000D30B2000030B300A4207008B2007108D3
:1004F000B30073201B2B40308706071F892A0E305C
:10050000B2000030B300A4207008B2007108B3003C
:1005100073201B2B80308706871F982A0F30B2006C
:100520000030B300A4207008B2007108B30073203B
:100530001B2B8312031300303106031DA12A003048
:1005400030060319A92900303106031DA92A0130FC
:1005500030060319B82900303106031DB12A0230D4
:1005600030060319C72900303106031DB92A0330AC
:1005700030060319D62900303106031DC12A043084
:1005800030060319E52900303106031DC92A05305C
:1005900030060319F42900303106031DD12A063034
:1005A00030060319032A00303106031DD92A07300B
:1005B00030060319122A00303106031DE12A0830E3
:1005C00030060319212A00303106031DE92A0930BB
:1005D00030060319302A00303106031DF12A0A3093
:1005E000300603193F2A00303106031DF92A0B306B
:1005F000300603194E2A00303106031D012B0C3042
:10060000300603195D2A00303106031D092B0D3019
:10061000300603196C2A00303106031D112B0E30F1
:10062000300603197B2A00303106031D192B0F30C9
:0A063000300603198A2A552008003D
:10063A0083120313A801A9018101D2308316810014
:10064A008B018B160B1D2E2B8312A80A0319A90ADC
:10065A000B11831200302906031D352B063028069C
:0A066A00031D382B392B272B080045
:1006740083120313AE01AF01AC01AD0180302D062E
:10068400F00080307002031D492B0A302C0203183D
:100694005C2B1D230130A2000030A3000618582B48
:1006A400A201A3016430AC000030AD00AC0A031910
:1006B400AD0A402B00302306031D622B01302206B5
:1006C400031DBE2B0618AA2B8421AC01AD0180307A
:1006D4002D06F00080307002031D722B08302C02AE
:1006E4000318A92B0230F4000030F5002C08F000A8
:1006F4002D08F1001B217808F0007908F10070083A
:10070400A4007108A500061C982B00302506031DC3
:100714008D2B00302406031D962B0130AE060030CD
:10072400AF06AE0DAF0D2E108614A42B0030250697
:10073400031D9E2B00302406031DA32BAE0DAF0D0D
:100744002E1086100320AC0A0319AD0A692BAB2BBB
:10075400642B2E08F0002F08F100F10CF00CF113BB
:10076400711BF1177008AE007108AF008610700895
:0A077400B0007108B100A8210800D0
:10077E00A1218A110A128000840AA60A0319A70A67
:08078E00F003031DBF2B08005E
:1007960083120313A001A10183168801013086008C
:1007A600870183128701860188018601061CDE2BDC
:0A07B600A001A1013A23D82BDF2B8C
:02400E004A2F37
:00000001FF
