:02000000E72BEC
:1000060083120313A801A9018101D230831681004E
:100016008B018B160B1D14288312A80A0319A90A33
:100026000B11831200302906031D1B280F302806EA
:0A003600031D1E281F280D280800D6
:10004000013083120313AA000030AB003808F2001D
:100050002A08F0002B08F100720803193428F00D6B
:10006000F10D7010FF3E2D287008AA007108AB003A
:0A0070003608F0053708F105080016
:10007A0083120313B601B70180303706F0008030CF
:10008A007002031D4A281430360203185428061534
:10009A00032006110320B60A0319B70A41280800EB
:1000AA0083120313A801A9018101D23083168100AA
:1000BA008B018B160B110B1D67288312A80A0319D3
:1000CA00A90A0B11831200302906031D6E285D3020
:0C00DA002806031D712872286028080009
:1000E60055203D2006155520061103200730B40083
:1000F6000030B50080303506F00080307002031DF8
:10010600862800303402031CA2283208B6003308C1
:10011600B7003408B8003508B90020200030710651
:10012600031D97280030700603199B2806159C2886
:10013600061103200130B402031CB5037D28061105
:020146000800AF
:1001480083120313B401B501F301F401803074067E
:10015800F00080307002031DB328043073020318C6
:10016800E02808303205F1003308F2000030F205CB
:1001780000307206031DC22808307106031DCF28FF
:100188000230B4060030B506B40DB50D3410B40D08
:10019800B50D3410D9280130B4060030B506B40DB9
:1001A800B50D3410B40DB50D3410B20DB30D3210B9
:1001B800F30A0319F40AAA283408F0003508F100F4
:1001C800F10CF00CF113711BF117F10CF00CF11399
:0601D800711BF117080085
:1001DE00710DF80DF90D7408F8027508031C750FF2
:1001EE00F902F00DF10D0F30FC00710DF80DF90D47
:1001FE007408701C0829F8027508031C750FF902A3
:10020E000D29F80775080318750FF907F00DF10D94
:10021E00FC0BFC28701819297408F80775080318C8
:08022E00750FF907000008003C
:10023600831203137408003A031D2A297508003A2D
:10024600031D2A29FF30F0007F30F1008329831235
:100256000313FD01F901F801710870040319003454
:1002660071087506FA00FA1BFD09FB01F51F402906
:10027600F409F509F40A0319F50AF11F4729F009EB
:10028600F109F00A0319F10A71087504FA00FA1B5C
:100296005C29EF207B186F29FD1F0034F009F10956
:1002A600F00A0319F10AF809F909F80A0319F90A13
:1002B6000034F51F6B29F11B67297108F9007008D6
:1002C600F800F101F0014F29F101F001F00A0034C4
:1002D600F109F009FB0A4C29F80A0319F90A74080E
:1002E6007802031D4F2975087902031D4F29F9016C
:1002F600F801F00A0319F10AF11F4F290000FF3433
:020306000800ED
:1003080083120313A801A9018101D2308316810049
:100318008B018B160B1D95298312A80A0319A90AAC
:100328000B11831200302906031D9C29173028065B
:0A033800031D9F29A0298E2908004B
:0E0342008312031327088A0026088200080091
:10035000B52A0130831203138806081CB829B2019C
:10036000B301A4207008B2007108B3007320BD2946
:100370003530B2000030B3007320372B02308806CE
:10038000881CCD290130B2000030B300A4207008D1
:10039000B2007108B3007320D7290130B2000030D9
:1003A000B300A4207009B2007109B3007320372B89
:1003B00004308806081DE7290230B2000030B3007F
:1003C000A4207008B2007108B3007320F129023034
:1003D000B2000030B300A4207009B2007109B3006C
:1003E0007320372B08308806881D002A0330B2009E
:1003F0000030B300A4207008B2007108B30073206D
:10040000372B10308806081E0F2A0430B200003047
:10041000B300A4207008B2007108B3007320372B1A
:1004200020308806881E1E2A0530B2000030B30036
:10043000A4207008B2007108B3007320372B40303D
:100440008806081F2D2A0630B2000030B300A42011
:100450007008B2007108B3007320372B8030880613
:10046000881F3C2A0730B2000030B300A420700877
:10047000B2007108B3007320372B01308706071CC8
:100480004B2A0830B2000030B300A4207008B2003C
:100490007108B3007320372B02308706871C5A2A55
:1004A0000930B2000030B300A4207008B200710817
:1004B000B3007320372B04308706071D692A0A30E2
:1004C000B2000030B300A4207008B2007108B3007D
:1004D0007320372B08308706871D782A0B30B2002F
:1004E0000030B300A4207008B2007108B30073207C
:1004F000372B10308706071E872A0C30B2000030D9
:10050000B300A4207008B2007108B3007320372B29
:1005100020308706871E962A0D30B2000030B300C7
:10052000A4207008B2007108B3007320372B40304C
:100530008706071FA52A0E30B2000030B300A420A2
:100540007008B2007108B3007320372B8030870623
:10055000871FB42A0F30B2000030B300A420700807
:10056000B2007108B3007320372B831203130030DD
:100570003106031DBD2A003030060319A9290030B9
:100580003106031DC52A013030060319BE2900308B
:100590003106031DCD2A023030060319D829003058
:1005A0003106031DD52A033030060319F229003025
:1005B0003106031DDD2A043030060319012A0030FC
:1005C0003106031DE52A053030060319102A0030D4
:1005D0003106031DED2A0630300603191F2A0030AC
:1005E0003106031DF52A0730300603192E2A003084
:1005F0003106031DFD2A0830300603193D2A00305C
:100600003106031D052B0930300603194C2A003032
:100610003106031D0D2B0A30300603195B2A00300A
:100620003106031D152B0B30300603196A2A0030E2
:100630003106031D1D2B0C3030060319792A0030BA
:100640003106031D252B0D3030060319882A003092
:100650003106031D2D2B0E3030060319972A00306A
:100660003106031D352B0F3030060319A62A5520FD
:02067000080080
:1006720083120313A801A9018101D23083168100DC
:100682008B018B160B1D4A2B8312A80A0319A90A88
:100692000B11831200302906031D512B0630280648
:0A06A200031D542B552B432B0800B9
:1006AC0083120313AE01AF01AC01AD0180302D06F6
:1006BC00F00080307002031D652B0A302C020318E9
:1006CC00782B39230130A2000030A3000618742BBC
:1006DC00A201A3016430AC000030AD00AC0A0319D8
:1006EC00AD0A5C2B00302306031D7E2B0130220645
:1006FC00031DDA2B0618C62B8421AC01AD0180300A
:10070C002D06F00080307002031D8E2B08302C0259
:10071C000318C52B0230F4000030F5002C08F00053
:10072C002D08F1001B217808F0007908F100700801
:10073C00A4007108A500061CB42B00302506031D6F
:10074C00A92B00302406031DB22B0130AE0600305D
:10075C00AF06AE0DAF0D2E108614C02B0030250643
:10076C00031DBA2B00302406031DBF2BAE0DAF0D9D
:10077C002E1086100320AC0A0319AD0A852BC72B4B
:10078C00802B2E08F0002F08F100F10CF00CF11367
:10079C00711BF1177008AE007108AF00861070085D
:0A07AC00B0007108B100A821080098
:1007B600A1218A110A128000840AA60A0319A70A2F
:0807C600F003031DDB2B08000A
:1007CE0083120313A001A101831688010130860054
:1007DE00870183128701860188018601061CFA2B88
:0A07EE00A001A1015623F42BFB2B00
:02400E004A2F37
:00000001FF
