:02000000862B4D
:0E000600213083120313FD00FD0B07280800B4
:100014000F3083120313FC004730FD00FD0B102842
:0A002400FC0B10280000000008008B
:06002E00000000000800C4
:1000340083160313D51B21288312871223288312C6
:1000440087168316551B2928831207122B2883121F
:1000540007168316D51A3128831288113328831280
:1000640088158316551A3928831208113B288312E0
:1000740008156F183F28871740288713071717207C
:1000840007138316D5194928831287124B28831224
:100094008716831655195128831207125328831281
:1000A40007168316D5185928831288115B288312E2
:1000B4008815831655186128831208116328831242
:1000C40008156F18672887176828871307171720DC
:0E00D40007136F1C6F280A20702803200800F5
:1000E200831203136F1083165408D5001A206F145D
:0200F200080004
:1000F4008C28803083160313D0009F28C030D00092
:100104009F289430D0009F28D430D0009F2880307E
:10011400D0009F28831603135008013A03197B2843
:100124005008023A031980285008033A0319832817
:100134005008043A0319862889285103F00050080E
:10014400F0077008D0007008D5001A206F108316CD
:10015400D30153085207840000080319BA2853082E
:10016400520784000008D40071208316D30AAB28F8
:0601740083126F14080065
:10017A0083160313C201C30183128101D23083168D
:10018A0081008B018B160B1DCE28C20A0319C30AE4
:10019A000B1100304306031DD4280F304206031DFD
:0801AA00D728D828C828080056
:1001B200013083160313D5001A2001308316D000B4
:1001C2000130D1003830D2007A2002308316D000BC
:0C01D2000130D1004B30D2007A20080030
:1001DE0083160313CC01CD0180304D06F000803024
:1001EE007002031DFC2814304C02031808298312D8
:1001FE000714BD2083120710BD20CC0A0319CD0AA7
:04020E00F3280800C9
:1002120083160313C201C30183128101D2308316F4
:1002220081008B018B160B110B1D1B29C20A0319AE
:10023200C30A0B1100304306031D21295D3042061B
:0A024200031D2429252915290800B1
:10024C00013083160313C4000030C5004E08F200C1
:10025C004408F0004508F100720803193A29F00D22
:10026C00F10D7010FF3E33297008C4007108C500F1
:0A027C004C08F0054D08F1050800DC
:10028600EF2083120714092183120710BD200730BF
:10029600CA000030CB0080304B06F0008030700280
:1002A600031D572900304A02031C75294808CC0053
:1002B6004908CD004A08CE004B08CF002621003061
:1002C6007106031D68290030700603196D29831213
:1002D60007146F2983120710BD200130CA02031CC0
:0C02E600CB034E2983120710D92008001A
:1002F20083160313CA01CB01F301F40180307406A3
:10030200F00080307002031D882904307302031844
:10031200B52908304805F1004908F2000030F2051D
:1003220000307206031D972908307106031DA429A7
:100332000230CA060030CB06CA0DCB0D4A10CA0DD8
:10034200CB0D4A10AE290130CA060030CB06CA0DC9
:10035200CB0D4A10CA0DCB0D4A10C80DC90D48105D
:10036200F30A0319F40A7F294A08F0004B08F10046
:10037200F10CF00CF113711BF117F10CF00CF113ED
:06038200711BF1170800D9
:10038800013083160313D0000130D100B630D200FB
:100398007A2001308316D0000A30D1004808D200F4
:1003A8007A2001308316D0000C30D100B130D20051
:1003B8007A2002308316D0000130D100A030D2005C
:0403C8007A2008008F
:0E03CC008316031341088A00400882000800CF
:1003DA00831603130713871308118811071287124C
:1003EA0083120713871387120712881108110A202C
:1003FA000A200A20881508150717172007130A204C
:10040A000717172007130A200717172007130A20B0
:10041A0008110717172007130A20071717200713B1
:10042A00881187160717172007130A20871208153D
:10043A0007171720071308110717172007130A2091
:10044A0007171720071308150717172007130A207D
:10045A000811071717200713871607168815081596
:0C046A000717172007130A206F14080062
:1004760001308312031386008316C601C70180303C
:100486004706F00080307002031D4B2A04304602F6
:100496000318792B8312061C922A061E5F2A2F3018
:1004A6008316C800C4218316C801C90179217008C2
:1004B600C8007108C9004321861E702A323083168F
:1004C600C800C42101308316C8000030C900792154
:1004D6007008C8007108C9004321061F812A2C3004
:1004E6008316C800C42102308316C8000030C90034
:1004F60079217008C8007108C9004321861F922A15
:1005060035308316C800C42103308316C800003076
:10051600C90079217008C8007108C9004321861CEA
:10052600D82A061EA52A5A308316C800C4210430CC
:100536008316C8000030C90079217008C800710808
:10054600C9004321861EB62A48308316C800C42136
:1005560005308316C8000030C90079217008C8002C
:100566007108C9004321061FC72A29308316C8000F
:10057600C42106308316C8000030C90079217008EE
:10058600C8007108C9004321861FD82A2330831664
:10059600C800C42107308316C8000030C90079217D
:1005A6007008C8007108C9004321061D1E2B061ECF
:1005B600EB2A26308316C800C42108308316C800EB
:1005C6000030C90079217008C8007108C9004321AC
:1005D600861EFC2A20308316C800C42109308316E3
:1005E600C8000030C90079217008C8007108C90028
:1005F6004321061F0D2B66308316C800C4210A301E
:100606008316C8000030C90079217008C800710837
:10061600C9004321861F1E2B63308316C800C421E0
:100626000B308316C8000030C90079217008C80055
:100636007108C9004321861D642B061E312B5D30CF
:100646008316C800C4210C308316C8000030C900C8
:1006560079217008C8007108C9004321861E422B03
:1006660060308316C800C4210D308316C8000030E0
:10067600C90079217008C8007108C9004321061F06
:10068600532B69308316C800C4210E308316C80068
:100696000030C90079217008C8007108C9004321DB
:1006A600861F642B6C308316C800C4210F30831656
:1006B600C8000030C90079217008C8007108C90057
:1006C60043213430FC00F130FD00FD0B682BFC0BA0
:1006D600682B000000000608F000F00D701070088E
:0E06E60086008316C60A0319C70A422A0800B6
:1006F400E6218A110A128000840AC00A0319C10A79
:08070400F003031D7A2B08002D
:10070C001A24F030831603138600870110308800FA
:10071C008312870186018801ED210C308316D500E8
:10072C001A20D9203430FC00F130FD00FD0B9C2B3D
:0E073C00FC0B9C2B000000003B22A22BA42BE8
:10083400203084004C3083120313F000AA30831656
:10084400C0000330C1007A23A030840016300313A3
:10085400F000F6308316C0000330C1007A236C30F8
:10086400840003300313F00016308316C0000430F4
:10087400C1007A23B63084000A300313F0000C3030
:0C0884008316C0000430C1007A23080075
:060754003034393400349A
:06075A0030343734003496
:060760003034383400348F
:060766003034363400348B
:06076C0030343234003489
:0607720030343034003485
:060778003034313400347E
:06077E0030343334003476
:1007840020345034523445345334533420344134B7
:100794004E34593420344B344534593420340034E5
:0607A4003034353400344E
:1007AA002034203454344F342034543452344134B5
:0E07BA004E3453344D3449345434203400341A
:0607C8003034343400342B
:0607CE0031343234003426
:0607D4003134333400341F
:0607DA003134313400341B
:0607E00031343034003416
:0607E6003134343400340C
:1007EC0020345434523441344E3453344D3449341F
:1007FC005434543449344E3447342E342E342E343D
:02080C000034B6
:0A080E002034493453342034003400
:1008180020344334483441344E344E3445344C3417
:040828002034003444
:06082C00313435340034C4
:02400E004A2F37
:00000001FF
