:02000000ED2DE4
:0E000600213083120313FD00FD0B07280800B4
:06001400000000000800DE
:10001A000F3083120313FC004730FD00FD0B132839
:0A002A00FC0B132800000000080082
:10003400831203179C1B21280313871223280313FD
:10004400871603171C1B2928031307122B280313D5
:10005400071603179C1A3128031388113328031336
:10006400881503171C1A3928031308113B28031396
:1000740008158316681841288312871743288312AA
:10008400871307170A20071303179C194C28031317
:1000940087124E280313871603171C1954280313B9
:1000A400071256280313071603179C185C2803131A
:1000B40088115E280313881503171C18642803137A
:1000C4000811662803130815831668186C28831210
:1000D40087176E288312871307170A2007138316BE
:0C00E400681C76280D20772803200800F7
:1000F000710DF80DF90D7408F8027508031C750FE1
:10010000F902F00DF10D0F30FC00710DF80DF90D35
:100110007408701C9128F8027508031C750FF90209
:100120009628F80775080318750FF907F00DF10DFB
:10013000FC0B85287018A2287408F80775080318A6
:08014000750FF907000008002B
:10014800831603136810831203171B089C001A20D8
:0601580083166814080084
:10015E00C1288030831203179800D428C03098002D
:10016E00D42894309800D428D4309800D4288030E5
:10017E009800D428831203171808013A0319B028DF
:10018E001808023A0319B5281808033A0319B828B3
:10019E001808043A0319BB28BE281903F0001808E2
:1001AE00F0077008980070089C001A2083166810DB
:1001BE00EF016F08831203171A0784000008031952
:1001CE00F428831603136F08831203171A0784008B
:1001DE0000089B00A420EF0AE0288316031368147E
:0201EE00080007
:1001F00083160313D701D80183128101D2308316ED
:1002000081008B018B160B1D0929D70A0319D80A07
:100210000B1100305806031D0F290F305706031D20
:0802200012291329032908002B
:1002280083160313D701D80183128101D2308316B4
:1002380081008B018B160B1D2529D70A0319D80AB3
:100248000B1100305806031D2B2917305706031DC4
:080258002E292F291F2908009F
:10026000831203137408003A031D3F297508003AEE
:10027000031D3F29FF30F0007F30F10098298312E1
:100280000313FD01F901F80171087004031900342A
:1002900071087506FA00FA1BFD09FB01F51F5529C7
:1002A000F409F509F40A0319F50AF11F5C29F009AC
:1002B000F109F00A0319F10A71087504FA00FA1B32
:1002C000712978207B188429FD1F0034F009F10979
:1002D000F00A0319F10AF809F909F80A0319F90AE9
:1002E0000034F51F8029F11B7C297108F900700882
:1002F000F800F101F0016429F101F001F00A003485
:10030000F109F009FB0A6129F80A0319F90A7408CE
:100310007802031D642975087902031D6429F90117
:10032000F801F00A0319F10AF11F64290000FF34F3
:020330000800C3
:1003320083160313D701D80183128101D2308316A9
:1003420081008B018B160B1DAA29D70A0319D80A23
:100352000B1100305806031DB02906305706031D45
:08036200B329B429A429080005
:10036A00013083160313E3000030E40083120317FD
:10037A001608F200831603136308F0006408F100FC
:10038A0072080319CD29F00DF10D7010FF3EC62930
:10039A007008E3007108E400831203171408F005DB
:0603AA001508F105080032
:1003B00083160313E101E2018312031794019501EF
:1003C00080301506F00080307002031DE9290A30E4
:1003D00014020318012A99210130DF000030E000E7
:1003E0008312081AFC298316DF01E00164308312AE
:1003F00003179400003095000317940A0319950A17
:10040000E0290030831603136006031D092A01301A
:100410005F06031D7F2A0130831203179600003008
:10042000970083160313DB01DC0103138312081A00
:10043000752A142183120317940195018030150643
:10044000F00080307002031D272A083014020318C0
:10045000742A0230F4000030F5001408F00015088A
:10046000F10030217808F0007908F1007008831657
:10047000D9007108DA008312081E5B2A03171608D8
:1004800083160313DB06831203171708831603135F
:10049000DC0600305A06031D4F2A00305906031DA2
:1004A000582A0130E1060030E206E10DE20D61104C
:1004B00083128816692A003083165A06031D622AA1
:1004C00000305906031D672AE10DE20D6110831209
:1004D00088120317960D970D1610F8208312031734
:1004E000940A0319950A1E2A762A152A83160313DD
:1004F000E20CE10CE213621BE217831208120800FF
:1005000083160313D701D80183128101D2308316D9
:1005100081008B018B160B110B1D922AD70A031930
:10052000D80A0B1100305806031D982A5D30570673
:0A053000031D9B2A9C2A8C2A080058
:10053A000130831203179C001A2001300317980018
:10054A00013099005D309A00AF2002308312031700
:0E055A009800013099004E309A00AF20080042
:100568000130831203179C001A20013003179800EA
:10057800013099002F309A00AF2001308312031701
:1005880098000A30990014089A00AF2001308312AD
:10059800031798000C309900A0309A00AF20023061
:1005A8008312031798000830990015089A00AF20A5
:0205B800080039
:1005BA00831203179401950180301506F0008030EC
:1005CA007002031DEA2A143014020318F82A0313CE
:1005DA000714F82083120710F82083120317940ACD
:0805EA000319950AE12A08003B
:1005F200DD2203130714802283120710F82007302C
:100602008312031790000030910080301106F00031
:1006120080307002031D0F2B00301002031C372B99
:10062200831603136D0883120317940083160313B2
:100632006E088312031795001008960011089700A0
:10064200B52100307106031D282B003070060319F6
:100652002D2B031307142F2B03130710F82001303F
:10066200831203179002031C9103062B0313071036
:1006720011308316E1000030E20083120317920169
:10068200930180301306F00080307002031D4B2B63
:10069200C83012020318582B0313081E512BD821FD
:1006A200992183120317920A0319930A422B831684
:1006B200031362086A06031D602B69086106031DA5
:1006C2006A2B6508831203179400D4309500B42274
:1006D200922B0030DC1BFF30F000003A031D7B2B15
:1006E2007008A83A031D7B2B5C08003A031D7B2B84
:1006F20035305B06031D852B6508831203179400B2
:10070200BF309500B422922B0130831203179C0054
:100712001A2001300317980001309900AE309A0078
:10072200AF200B30FB002630FC005D30FD00FD0BDE
:10073200982BFC0B982BFB0B982B000000009D22A2
:020742000800AD
:100744008312031790019101831603136D08E900C6
:100754006E08EA006D08E6006E08E700F301F40194
:1007640080307406F00080307002031DBB2B04300F
:1007740073020318EE2B08306D05F1006E08F200C9
:100784000030F20500307206031DCA2B08307106D2
:10079400031DD92B023083120317900600309106F3
:1007A400900D910D1010900D910D1010E52B8312EA
:1007B40003170130900600309106900D910D101032
:1007C400900D910D101083160313ED0DEE0D6D10A9
:1007D400F30A0319F40AB22B831203171008F0006A
:1007E4001108F100F10CF00CF113711BF117F10C6D
:0A07F400F00CF113711BF11708005F
:1007FE00831603136D08E50001308312031798006A
:10080E00013099002F309A00AF2001308312031768
:10081E0098000A309900831603136D08831203178C
:10082E009A00AF2001308312031798000C30990004
:10083E00A0309A00AF2002308312031798000130C7
:0A084E009900C3309A00AF200800A3
:0E085800831603135E088A005D088200080004
:1008660083160313071387130811881107128712BB
:1008760083120713871387120712881108110D2098
:100886000D200D208815081507170A2007130D20BF
:1008960007170A2007130D2007170A2007130D2034
:1008A600081107170A2007130D2007170A20071338
:1008B6008811871607170A2007130D2087120815B7
:1008C60007170A200713081107170A2007130D2018
:1008D60007170A200713081507170A2007130D2004
:1008E600081107170A200713871607168815081513
:0E08F60007170A2007130D2083166814080048
:1009040001308312031386008316EB01EC0180305F
:100914006C06F00080307002031D922C04306B02D0
:100924000318E02D8312061CE02C061EA72C4B3066
:100934008316ED00FF23ED01EE01A2237008831658
:100944000313ED007108EE00F9228312861EBA2CFF
:100954003C308316ED00FF230130ED000030EE0043
:10096400A223700883160313ED007108EE00F92228
:100974008312061FCD2C48308316ED00FF2302306E
:10098400ED000030EE00A223700883160313ED007F
:100994007108EE00F9228312861FE02C4230831680
:1009A400ED00FF230330ED000030EE00A2237008B9
:1009B40083160313ED007108EE00F9228312861CDE
:1009C4002E2D061EF52C45308316ED00FF23043032
:1009D400ED000030EE00A223700883160313ED002F
:1009E4007108EE00F9228312861E082D3930831611
:1009F400ED00FF230530ED000030EE00A223700867
:100A040083160313ED007108EE00F9228312061F0A
:100A14001B2D3F308316ED00FF230630ED00003020
:100A2400EE00A223700883160313ED007108EE0094
:100A3400F9228312861F2E2D6D308316ED00FF23BD
:100A44000730ED000030EE00A22370088316031374
:100A5400ED007108EE00F9228312061D7C2D061E9E
:100A6400432DA5308316ED00FF230830ED00003040
:100A7400EE00A223700883160313ED007108EE0044
:100A8400F9228312861E562DA8308316ED00FF230B
:100A94000930ED000030EE00A22370088316031322
:100AA400ED007108EE00F9228312061F692D203033
:100AB4008316ED00FF230A30ED000030EE00A22380
:100AC400700883160313ED007108EE00F9228312F7
:100AD400861F7C2D23308316ED00FF230B30ED00A1
:100AE4000030EE00A223700883160313ED00710892
:100AF400EE00F9228312861DCA2D061E912D263082
:100B04008316ED00FF230C30ED000030EE00A2232D
:100B1400700883160313ED007108EE00F9228312A6
:100B2400861EA42D29308316ED00FF230D30ED0021
:100B34000030EE00A223700883160313ED00710841
:100B4400EE00F9228312061FB72D2C308316ED0018
:100B5400FF230E30ED000030EE00A2237008831650
:100B64000313ED007108EE00F9228312861FCA2DCB
:100B7400AB308316ED00FF230F30ED000030EE00A4
:100B8400A223700883160313ED007108EE00F92206
:100B94003430FC00F130FD00FD0BCE2DFC0BCE2DCE
:100BA4000000000083120608F000F00D70107008B9
:0E0BB40086008316EB0A0319EC0A892C080050
:100BC2002C248A110A128000840ADD0A0319DE0A23
:080BD200F003031DE12D0800F2
:100BDA009A26F030831603138600870110308800A6
:100BEA00831287018601880133240C30831203178C
:100BFA009C001A209D223430FC00F130FD00FD0BD0
:100C0A00042EFC0B042E0000000082240A2E0C2E57
:100D3400203084004D3083120313F00012308316E8
:100D4400DD000630DE00E125A0308400053083128A
:100D5400F00091308316DD000630DE00E1256D30B1
:100D6400840003308312F00096308316DD000630D1
:100D7400DE00E125A530840032308312F0005F30BC
:0C0D84008316DD000630DE00E1250800CB
:060C2400313430340034CD
:060C2A00313431340034C6
:060C3000313432340034BF
:060C3600313433340034B8
:060C3C00313434340034B1
:100C420020344334483441344E344E3445344C34E9
:040C52002034003416
:060C560030343534003497
:060C5C0030343134003495
:060C62003034363400348A
:060C680030343334003487
:060C6E0030343434003480
:060C74003034323400347C
:060C7A0030343034003478
:100C80002034203454344F342034543452344134DA
:0E0C90004E3453344D3449345434203400343F
:100C9E002034503452344534533453342034413498
:100CAE004E34593420344B344534593420340034C6
:060CBE003034383400342C
:060CC40030343934003425
:060CCA0031343534003422
:100CD000413443344B3420344E344F345434203474
:100CE000523445344334453449345634453444341D
:020CF0000034CE
:080CF2004F344634463400344F
:100CFA0020345434523441344E3453344D3449340C
:100D0A005434543449344E3447342E342E342E3429
:020D1A000034A3
:060D1C004F344E34003498
:0A0D220020344934533420340034E7
:060D2C00303437340034BE
:02400E004A2F37
:00000001FF
