:02000000472D8A
:0E000600213083120313FD00FD0B07280800B4
:06001400000000000800DE
:10001A000F3083120313FC004730FD00FD0B132839
:0A002A00FC0B132800000000080082
:1000340083160313E71B21288312871223288312B4
:1000440087168316671B2928831207122B2883120D
:1000540007168316E71A312883128811332883126E
:1000640088158316671A3928831208113B288312CE
:1000740008158316521841288312871743288312C0
:10008400871307170A2007138316E7194C288312CE
:1000940087124E28831287168316671954288312F1
:1000A40007125628831207168316E7185C28831252
:1000B40088115E28831288158316671864288312B2
:1000C4000811662883120815831652186C288312A7
:1000D40087176E288312871307170A2007138316BE
:0C00E400521C76280D207728032008000D
:1000F000710DF80DF90D7408F8027508031C750FE1
:10010000F902F00DF10D0F30FC00710DF80DF90D35
:100110007408701C9128F8027508031C750FF90209
:100120009628F80775080318750FF907F00DF10DFB
:10013000FC0B85287018A2287408F80775080318A6
:08014000750FF907000008002B
:100148008316031352106608E7001A208316521408
:0201580008009D
:10015A00BF28803083160313E200D228C030E200A1
:10016A00D2289430E200D228D430E200D22880305B
:10017A00E200D228831603136208013A0319AE2853
:10018A006208023A0319B3286208033A0319B62827
:10019A006208043A0319B928BC286303F00062080C
:1001AA00F0077008E2007008E7001A208316521060
:1001BA00E50165086407840000080319EC2865084E
:1001CA00640784000008E600A420E50ADE28521429
:0201DA0008001B
:1001DC0083120313EE01EF018101D23083168100EB
:1001EC008B018B160B1DFF288312EE0A0319EF0AE5
:1001FC000B11831200306F06031D06290F306E069B
:0A020C00031D09290A29F82808003B
:1002160083120313EE01EF018101D23083168100B0
:100226008B018B160B1D1C298312EE0A0319EF0A8C
:100236000B11831200306F06031D232917306E063B
:0A024600031D2629272915290800A9
:10025000831203137408003A031D37297508003A06
:10026000031D3729FF30F0007F30F1009029831201
:100270000313FD01F901F80171087004031900343A
:1002800071087506FA00FA1BFD09FB01F51F4D29DF
:10029000F409F509F40A0319F50AF11F5429F009C4
:1002A000F109F00A0319F10A71087504FA00FA1B42
:1002B000692978207B187C29FD1F0034F009F10999
:1002C000F00A0319F10AF809F909F80A0319F90AF9
:1002D0000034F51F7829F11B74297108F9007008A2
:1002E000F800F101F0015C29F101F001F00A00349D
:1002F000F109F009FB0A5929F80A0319F90A7408E7
:100300007802031D5C2975087902031D5C29F90137
:10031000F801F00A0319F10AF11F5C290000FF340B
:020320000800D3
:1003220083120313EE01EF018101D23083168100A3
:100332008B018B160B1DA2298312EE0A0319EF0AF9
:100342000B11831200306F06031DA92906306E06B9
:0A035200031DAC29AD299B2908000A
:10035C00013083160313CE000030CF006008F2008A
:10036C004E08F0004F08F10072080319C229F00D75
:10037C00F10D7010FF3EBB297008CE007108CF0044
:0A038C005E08F0055F08F1050800A7
:1003960083160313CC01CD01DE01DF0180305F0639
:1003A600F00080307002031DDA290A305E0203185D
:1003B600F129912101308316CA000030CB00831247
:1003C600081AEC298316CA01CB016430DE0000301E
:1003D600DF008316DE0A0319DF0AD12900304B0637
:1003E600031DF72901304A06031D512A8312081AF4
:1003F600482A0B218316DE01DF0180305F06F000FC
:1004060080307002031D092A08305E020318472A4D
:100416000230F4000030F5005E08F0005F08F100DD
:1004260028217808F0007908F10070088316C800C2
:100436007108C9008312081E332A00308316490644
:10044600031D272A00304806031D302A0130CC063A
:100456000030CD06CC0DCD0D4C1083128816412AE6
:10046600003083164906031D3A2A00304806031D4C
:100476003F2ACC0DCD0D4C1083128812EE20831628
:10048600DE0A0319DF0A002A492AF9298316CD0C48
:0E049600CC0CCD134D1BCD178312081208009D
:1004A40083120313EE01EF018101D2308316810020
:1004B4008B018B160B110B1D642A8312EE0A031990
:1004C400EF0A0B11831200306F06031D6B2A5D3097
:0C04D4006E06031D6E2A6F2A5D2A0800C8
:1004E000013083160313E7001A2001308316E2005F
:1004F0000130E300A030E400AD200230E200013022
:0A050000E3005630E400AD200800CF
:10050A00013083160313E7001A2001308316E20034
:10051A000130E3004630E400AD200130E2000A3049
:10052A00E3005E08E400AD200130E2000C30E30095
:10053A004130E400AD200230E2000830E3005F08F9
:06054A00E400AD200800F2
:1005500083160313DE01DF0180305F06F000803078
:100560007002031DB52A14305E020318C12A8312DB
:100570000714EE200710EE208316DE0A0319DF0AA7
:04058000AC2A080099
:10058400A8228312071452220710EE200730831684
:10059400DA000030DB0080305B06F000803070024F
:1005A400031DD62A00305A02031CF52A5808DE001F
:1005B4005908DF005A08E0005B08E100AE21003072
:1005C4007106031DE72A003070060319EC2A831212
:1005D4000714EE2A83120710EE2001308316DA0284
:1005E400031CDB03CD2A8312071011308316CC00C1
:1005F4000030CD00DC01DD0180305D06F00080308C
:100604007002031D072BC8305C020318132B8312DE
:10061400081E0D2BCB2191218316DC0A0319DD0A58
:10062400FE2A4D085506031D192B54084C06031DBC
:10063400212B5308DE00B030DF008522262B53081F
:10064400DE00B330DF0085220B30FB002630FC00D7
:100654005D30FD00FD0B2C2BFC0B2C2BFB0B2C2BF2
:080664000000000070220800F4
:10066C0083160313DA01DB015808D4005908D500AE
:10067C00F301F40180307406F00080307002031D29
:10068C00492B043073020318762B08305805F100FF
:10069C005908F2000030F20500307206031D582B89
:1006AC0008307106031D652B0230DA060030DB06BC
:1006BC00DA0DDB0D5A10DA0DDB0D5A106F2B0130F1
:1006CC00DA060030DB06DA0DDB0D5A10DA0DDB0D25
:1006DC005A10D80DD90D5810F30A0319F40A402BEF
:1006EC005A08F0005B08F100F10CF00CF113711BCF
:0E06FC00F117F10CF00CF113711BF11708004F
:10070A00831603135808D3000130E2000130E300D6
:10071A004630E400AD200130E2000A30E300580818
:10072A00E400AD200130E2000C30E3004130E40087
:10073A00AD200230E2000130E300B730E400AD2022
:02074A000800A5
:0E074C008316031351088A005008820008002B
:10075A0083160313071387130811881107128712C8
:10076A0083120713871387120712881108110D20A5
:10077A000D200D208815081507170A2007130D20CC
:10078A0007170A2007130D2007170A2007130D2041
:10079A00081107170A2007130D2007170A20071345
:1007AA008811871607170A2007130D2087120815C4
:1007BA0007170A200713081107170A2007130D2025
:1007CA0007170A200713081507170A2007130D2011
:1007DA00081107170A200713871607168815081520
:0E07EA0007170A2007130D208316521408006B
:1007F80001308312031386008316D601D701803097
:100808005706F00080307002031D0C2C043056028D
:1008180003183A2D8312061C522C061E1F2C2F304B
:100828008316D8008523D801D90136237008D8004B
:100838007108D900C2228312861E302C3B308316E1
:10084800D80085230130D8000030D900362370083D
:10085800D8007108D900C2228312061F412C3830F3
:100868008316D80085230230D8000030D9003623FB
:100878007008D8007108D900C2228312861F522C32
:1008880035308316D80085230330D8000030D900CE
:1008980036237008D8007108D900C2228312861C3A
:1008A800982C061E652C2C308316D800852304301E
:1008B800D8000030D90036237008D8007108D90054
:1008C800C2228312861E762C32308316D8008523E6
:1008D8000530D8000030D90036237008D8007108D8
:1008E800D900C2228312061F872C3E308316D800F7
:1008F80085230630D8000030D90036237008D80088
:100908007108D900C2228312861F982C533083168F
:10091800D80085230730D8000030D9003623700866
:10092800D8007108D900C2228312061DDE2C061ECB
:10093800AB2C50308316D80085230830D8000030FF
:10094800D90036237008D8007108D900C222831252
:10095800861EBC2C20308316D80085230930D80089
:100968000030D90036237008D8007108D900C22297
:100978008312061FCD2C23308316D80085230A3016
:10098800D8000030D90036237008D8007108D90083
:10099800C2228312861FDE2C26308316D8008523B8
:1009A8000B30D8000030D90036237008D800710801
:1009B800D900C2228312861D242D061EF12C29304F
:1009C8008316D80085230C30D8000030D900362390
:1009D8007008D8007108D900C2228312861E022D21
:1009E8006B308316D80085230D30D8000030D9002D
:1009F80036237008D8007108D900C2228312061F56
:100A0800132D65308316D80085230E30D8000030AA
:100A1800D90036237008D8007108D900C222831281
:100A2800861F242D68308316D80085230F30D80000
:100A38000030D90036237008D8007108D900C222C6
:100A48003430FC00F130FD00FD0B282DFC0B282D67
:100A58000000000083120608F000F00D7010700806
:0E0A680086008316D60A0319D70A032C08004D
:100A7600A6238A110A128000840AD00A0319D10A11
:080A8600F003031D3B2D0800E5
:100A8E00E025F030831603138600870110308800AE
:100A9E008312870186018801AD230C30E7001A20EE
:100AAE0070223430FC00F130FD00FD0B5C2DFC0B90
:0C0ABE005C2D00000000FC23622D642D64
:100BC00020308400453083120313F0006A3083160E
:100BD000D0000530D1003B25A030840010308312B6
:100BE0000313F000C7308316D0000530D1003B2539
:100BF00065308400093083120313F000D730831668
:100C0000D0000530D1003B25B0308400183083126D
:100C10000313F000AF308316D0000530D1003B2520
:020C20000800CA
:060AD40030343934003417
:060ADA0031343034003419
:060AE00031343134003412
:060AE6003134323400340B
:060AEC0030343434003404
:060AF20030343034003402
:060AF800303435340034F7
:060AFE00303433340034F3
:060B0400303432340034ED
:060B0A00303431340034E8
:060B1000303436340034DD
:0A0B160020344934533420340034F5
:100B200020344334483441344E344E3445344C340C
:040B30002034003439
:060B3400303438340034B7
:060B3A00303437340034B2
:100B40002034203454344F3420345434523441341B
:0E0B50004E3453344D34493454342034003480
:060B5E004F344E34003458
:080B64004F34463446340034DE
:100B6C0020345434523441344E3453344D3449349B
:100B7C005434543449344E3447342E342E342E34B9
:020B8C00003433
:100B8E0020345034523445345334533420344134A9
:100B9E004E34593420344B344534593420340034D7
:060BAE0031343434003440
:060BB40031343534003439
:060BBA0031343334003435
:02400E004A2F37
:00000001FF
